{
  "contractName": "Election",
  "abi": [
    {
      "inputs": [],
      "payable": false,
      "stateMutability": "nonpayable",
      "type": "constructor"
    },
    {
      "constant": true,
      "inputs": [],
      "name": "candidateCount",
      "outputs": [
        {
          "internalType": "uint256",
          "name": "",
          "type": "uint256"
        }
      ],
      "payable": false,
      "stateMutability": "view",
      "type": "function"
    },
    {
      "constant": true,
      "inputs": [
        {
          "internalType": "uint256",
          "name": "",
          "type": "uint256"
        }
      ],
      "name": "candidates",
      "outputs": [
        {
          "internalType": "uint256",
          "name": "id",
          "type": "uint256"
        },
        {
          "internalType": "string",
          "name": "name",
          "type": "string"
        },
        {
          "internalType": "uint256",
          "name": "voteCount",
          "type": "uint256"
        }
      ],
      "payable": false,
      "stateMutability": "view",
      "type": "function"
    },
    {
      "constant": true,
      "inputs": [
        {
          "internalType": "string",
          "name": "",
          "type": "string"
        }
      ],
      "name": "voterRegistry",
      "outputs": [
        {
          "internalType": "address",
          "name": "",
          "type": "address"
        }
      ],
      "payable": false,
      "stateMutability": "view",
      "type": "function"
    },
    {
      "constant": false,
      "inputs": [
        {
          "internalType": "uint256",
          "name": "_candidateId",
          "type": "uint256"
        },
        {
          "internalType": "string",
          "name": "_voterName",
          "type": "string"
        }
      ],
      "name": "voteCandidate",
      "outputs": [],
      "payable": false,
      "stateMutability": "nonpayable",
      "type": "function"
    }
  ],
  "bytecode": "0x608060405234801561001057600080fd5b506100556040518060400160405280600e81526020017f4b616e79652057657374203030310000000000000000000000000000000000008152506100e260201b60201c565b6100996040518060400160405280601281526020017f447761796e65204a6f686e736f6e2030303200000000000000000000000000008152506100e260201b60201c565b6100dd6040518060400160405280601581526020017f44656e7a656c2057617368696e67746f6e2030303300000000000000000000008152506100e260201b60201c565b610201565b6000808154809291906001019190505550604051806060016040528060005481526020018281526020016000815250600160008054815260200190815260200160002060008201518160000155602082015181600101908051906020019061014b92919061015c565b506040820151816002015590505050565b828054600181600116156101000203166002900490600052602060002090601f016020900481019282601f1061019d57805160ff19168380011785556101cb565b828001600101855582156101cb579182015b828111156101ca5782518255916020019190600101906101af565b5b5090506101d891906101dc565b5090565b6101fe91905b808211156101fa5760008160009055506001016101e2565b5090565b90565b6105c0806102106000396000f3fe608060405234801561001057600080fd5b506004361061004c5760003560e01c806312248bf2146100515780633477ee2e14610116578063a9a981a3146101cb578063d2a7eade146101e9575b600080fd5b6101146004803603604081101561006757600080fd5b81019080803590602001909291908035906020019064010000000081111561008e57600080fd5b8201836020820111156100a057600080fd5b803590602001918460018302840111640100000000831117156100c257600080fd5b91908080601f016020809104026020016040519081016040528093929190818152602001838380828437600081840152601f19601f8201169050808301925050505050505091929192905050506102e4565b005b6101426004803603602081101561012c57600080fd5b810190808035906020019092919050505061047a565b6040518084815260200180602001838152602001828103825284818151815260200191508051906020019080838360005b8381101561018e578082015181840152602081019050610173565b50505050905090810190601f1680156101bb5780820380516001836020036101000a031916815260200191505b5094505050505060405180910390f35b6101d361053c565b6040518082815260200191505060405180910390f35b6102a2600480360360208110156101ff57600080fd5b810190808035906020019064010000000081111561021c57600080fd5b82018360208201111561022e57600080fd5b8035906020019184600183028401116401000000008311171561025057600080fd5b91908080601f016020809104026020016040519081016040528093929190818152602001838380828437600081840152601f19601f820116905080830192505050505050509192919290505050610542565b604051808273ffffffffffffffffffffffffffffffffffffffff1673ffffffffffffffffffffffffffffffffffffffff16815260200191505060405180910390f35b806002816040518082805190602001908083835b6020831061031b57805182526020820191506020810190506020830392506102f8565b6001836020036101000a038019825116818451168082178552505050505050905001915050908152602001604051809103902060009054906101000a900473ffffffffffffffffffffffffffffffffffffffff1673ffffffffffffffffffffffffffffffffffffffff163373ffffffffffffffffffffffffffffffffffffffff1614156103a757600080fd5b6001600084815260200190815260200160002060020160008154809291906001019190505550336002836040518082805190602001908083835b6020831061040457805182526020820191506020810190506020830392506103e1565b6001836020036101000a038019825116818451168082178552505050505050905001915050908152602001604051809103902060006101000a81548173ffffffffffffffffffffffffffffffffffffffff021916908373ffffffffffffffffffffffffffffffffffffffff160217905550505050565b6001602052806000526040600020600091509050806000015490806001018054600181600116156101000203166002900480601f01602080910402602001604051908101604052809291908181526020018280546001816001161561010002031660029004801561052c5780601f106105015761010080835404028352916020019161052c565b820191906000526020600020905b81548152906001019060200180831161050f57829003601f168201915b5050505050908060020154905083565b60005481565b6002818051602081018201805184825260208301602085012081835280955050505050506000915054906101000a900473ffffffffffffffffffffffffffffffffffffffff168156fea265627a7a723158200faab47e125fe99710fe107ff1608033073eda7c94679b55a17d16b7b9f5ec9e64736f6c63430005100032",
  "source": "pragma solidity ^0.5.0;\r\n\r\ncontract Election {\r\n\tstruct Candidate {\r\n\t\tuint id;\r\n\t\tstring name;\r\n\t\tuint voteCount;\r\n\t}\r\n\r\n\tuint public candidateCount;\r\n\tmapping (uint => Candidate) public candidates;\r\n\r\n\t//prevent double votes - voter register\r\n\tmapping (string => address) public voterRegistry;\r\n\r\n\tconstructor() public {\r\n\t\t_addCandidate(\"Kanye West 001\");\r\n\t\t_addCandidate(\"Dwayne Johnson 002\");\r\n\t\t_addCandidate(\"Denzel Washington 003\");\r\n\t}\r\n\r\n\tmodifier singleVote(string memory _voterName) {\r\n\t\trequire(msg.sender != voterRegistry[_voterName]);\r\n\t\t_;\r\n\t}\r\n\r\n\tfunction _addCandidate(string memory _name) private {\r\n\t\tcandidateCount++;\r\n\t\tcandidates[candidateCount] = Candidate(candidateCount, _name, 0);\r\n\t}\r\n\r\n\tfunction voteCandidate(uint _candidateId, string memory _voterName) public singleVote(_voterName) {\r\n\t\tcandidates[_candidateId].voteCount++;\r\n\t\tvoterRegistry[_voterName] = msg.sender;\r\n\t}\r\n} ",
  "sourcePath": "C:/Users/tunde/Documents/Blockchain/Dex-Election/contracts/Election.sol",
  "compiler": {
    "name": "solc",
    "version": "0.5.16+commit.9c3226ce.Emscripten.clang"
  },
  "schemaVersion": "3.4.0",
  "updatedAt": "2021-06-03T16:37:57.996Z",
  "networkType": "ethereum",
  "devdoc": {
    "methods": {}
  },
  "userdoc": {
    "methods": {}
  }
}